:020000040800F2
:200000000000022075070008E9060008EF060008F5060008FB06000801070008000000002A
:20002000000000000000000000000000070700081507000800000000230700083107000814
:20004000C5070008C5070008C5070008C5070008C5070008C5070008C5070008C507000800
:20006000C5070008C5070008C5070008C5070008C5070008C5070008C5070008C5070008E0
:20008000C5070008C5070008C507000800000000000000000000000000000000C507000810
:2000A000C5070008C5070008C5070008C5070008C5070008C5070008C5070008C5070008A0
:2000C000C5070008C5070008C5070008C5070008C5070008C5070008C50700080000000054
:2000E000C5070008C5070008C507000800000000000000000000000000000000C5070008B0
:2001000000000000C5070008C5070008C50700080000000000000000000000000000000063
:20012000C5070008C5070008C5070008C5070008C50700080000000000000000000000009B
:200140000000000000000000000000003D070008C5070008C5070008C5070008C507000803
:20016000C5070008C5070008000000000000000000000000000000000000000000000000D7
:2001800000000000C50700080000000000000000C5070008C507000810B5054C237833B946
:2001A000044B13B10448AFF300800123237010BDDC000020000000005071000808B5034B6A
:2001C0001BB103490348AFF3008008BD00000000E00000205071000853B94AB9002908BF0D
:2001E00000281CBF4FF0FF314FF0FF3000F074B9ADF1080C6DE904CE00F006F8DDF804E081
:20020000DDE9022304B070472DE9F047089D04468E46002B4DD18A42944669D9B2FA82F227
:2002200052B101FA02F3C2F1200120FA01F10CFA02FC41EA030E94404FEA1C48210CBEFB54
:20024000F8F61FFA8CF708FB16E341EA034306FB07F199420AD91CEB030306F1FF3080F04D
:200260001F81994240F21C81023E63445B1AA4B2B3FBF8F008FB103344EA034400FB07F738
:20028000A7420AD91CEB040400F1FF3380F00A81A74240F207816444023840EA0640E41B71
:2002A00000261DB1D4400023C5E900433146BDE8F0878B4209D9002D00F0EF800026C5E980
:2002C000000130463146BDE8F087B3FA83F6002E4AD18B4202D3824200F2F980841A61EBEA
:2002E000030301209E46002DE0D0C5E9004EDDE702B9FFDEB2FA82F2002A40F09280A1EBA6
:200300000C014FEA1C471FFA8CFE0126200CB1FBF7F307FB131140EA01410EFB03F0884250
:2003200008D91CEB010103F1FF3802D2884200F2CB804346091AA4B2B1FBF7F007FB101115
:2003400044EA01440EFB00FEA64508D91CEB040400F1FF3102D2A64500F2BB800846A4EB5E
:200360000E0440EA03409CE7C6F12007B34022FA07FC4CEA030C20FA07F401FA06F31C43DE
:20038000F9404FEA1C4900FA06F3B1FBF9F8200C1FFA8CFE09FB181140EA014108FB0EF08D
:2003A000884202FA06F20BD91CEB010108F1FF3A80F08880884240F28580A8F1020861449F
:2003C000091AA4B2B1FBF9F009FB101144EA014100FB0EFE8E4508D91CEB010100F1FF3492
:2003E0006CD28E456AD90238614440EA0840A0FB0294A1EB0E01A142C846A64656D353D063
:200400005DB1B3EB080261EB0E0101FA07F722FA06F3F1401F43C5E9007100263146BDE8C9
:20042000F087C2F12003D8400CFA02FC21FA03F3914001434FEA1C471FFA8CFEB3FBF7F059
:2004400007FB10360B0C43EA064300FB0EF69E4204FA02F408D91CEB030300F1FF382FD2DD
:200460009E422DD9023863449B1B89B2B3FBF7F607FB163341EA034106FB0EF38B4208D9BF
:200480001CEB010106F1FF3816D28B4214D9023E6144C91A46EA004638E72E46284605E758
:2004A0000646E3E61846F8E64B45A9D2B9EB020864EB0C0E0138A3E74646EAE7204694E7C8
:2004C0004046D1E7D0467BE7023B614432E7304609E76444023842E7704700BF80B582B01D
:2004E00000AF00F071F900F0A5F84FF40071184801F062F80346002B07D04FF4806114483C
:2005000001F05AF80346002B04D100F02BF806F07FF81CE04FF400710D4800F069FF4FF42F
:2005200080610B4800F064FF0A4B1B680A4A1360094B1B681A46094B1A60094B1B687B60DE
:200540007B6883F3088800BF044B1B689847FEE70000024004800008FC000020F80000205B
:200560000080000880B594B000AF07F1200330220021184606F0E4FD07F10C0300221A6065
:200580005A609A60DA601A610023BB60274B1B6C264A43F080531364244B1B6C03F0805312
:2005A000BB60BB6800237B60214B1B68204A43F4404313601E4B1B6803F440437B607B6855
:2005C00002233B620123FB6210233B630223BB630023FB6310233B64C0237B640223BB646B
:2005E0000423FB6407F12003184602F057F90346002B01D000F04AF80F23FB6000233B61F7
:2006000000237B610023BB610023FB6107F10C030021184602F0BAFB0346002B01D000F0BB
:2006200035F800BF5037BD4680BD00BF003802400070004080B586B000AF3B1D00221A6010
:200640005A609A60DA601A6100233B600D4B1B6B0C4A43F0010313630A4B1B6B03F00103C0
:200660003B603B684FF4C0637B600023BB600123FB603B1D1946044800F036FD00BF18370A
:20068000BD4680BD003802400000024080B400AF72B600BFFEE7000080B483B000AF002376
:2006A0007B60104B5B6C0F4A43F4804353640D4B5B6C03F480437B607B6800233B60094B8A
:2006C0001B6C084A43F080531364064B1B6C03F080533B603B6800BF0C37BD465DF8047B0F
:2006E000704700BF0038024080B400AFFEE780B400AFFEE780B400AFFEE780B400AFFEE7EA
:2007000080B400AFFEE780B400AF00BFBD465DF8047B704780B400AF00BFBD465DF8047B68
:20072000704780B400AF00BFBD465DF8047B704780B500AF00F09AF800BF80BD80B500AF8C
:20074000024801F0DAF800BF80BD00BFF406002080B400AF064BD3F88830054A43F4700307
:20076000C2F8883000BFBD465DF8047B704700BF00ED00E0DFF834D00D480E490E4A00232C
:2007800002E0D458C4500433C4188C42F9D30B4A0B4C002301E013600432A242FBD3FFF789
:2007A000D7FF06F0A9FCFFF799FE70470000022000000020DC0000201C720008DC000020B4
:2007C0001C0F0020FEE7000080B500AF0E4B1B680D4A43F4007313600B4B1B680A4A43F451
:2007E00080631360084B1B68074A43F480731360032000F04FF90F2000F008F8FFF74CFF24
:200800000023184680BD00BF003C024080B582B000AF7860124B1A68124B1B7819464FF47E
:200820007A73B3FBF1F3B2FBF3F3184600F067F90346002B01D001230EE07B680F2B0AD8A2
:20084000002279684FF0FF3000F02FF9064A7B681360002300E0012318460837BD4680BD65
:2008600000000020080000200400002080B400AF064B1B781A46064B1B681344044A1360F9
:2008800000BFBD465DF8047B704700BF080000200001002080B400AF034B1B681846BD46EE
:2008A0005DF8047B704700BF0001002080B584B000AF7860FFF7EEFFB8607B68FB60FB6841
:2008C000B3F1FF3F05D00A4B1B781A46FB681344FB6000BFFFF7DEFF0246BB68D31AFA68B8
:2008E0009A42F7D800BF00BF1037BD4680BD00BF0800002080B485B000AF78607B6803F09B
:200900000703FB600C4BDB68BB60BA684FF6FF031340BB60FB681A02BB68134343F0BF6399
:2009200043F40033BB60044ABB68D36000BF1437BD465DF8047B704700ED00E080B400AF46
:20094000044BDB681B0A03F007031846BD465DF8047B704700ED00E080B483B000AF0346CB
:20096000FB7197F90730002B0BDBFB7903F01F02074997F907305B09012000FA02F241F8E8
:20098000232000BF0C37BD465DF8047B704700BF00E100E080B483B000AF03463960FB71A0
:2009A00097F90730002B0ADB3B68DAB20C4997F907301201D2B20B4483F800230AE03B6804
:2009C000DAB20849FB7903F00F03043B1201D2B20B441A7600BF0C37BD465DF8047B70477C
:2009E00000E100E000ED00E080B489B000AFF860B9607A60FB6803F00703FB61FB69C3F12E
:200A00000703042B28BF0423BB61FB690433062B02D9FB69033B00E000237B614FF0FF32DB
:200A2000BB6902FA03F3DA43BB681A407B699A404FF0FF317B6901FA03F3D9437B680B40BA
:200A4000134318462437BD465DF8047B7047000080B582B000AF78607B68013BB3F1807F49
:200A600001D301230FE00A4A7B68013B53600F214FF0FF30FFF78EFF054B00229A60044B8D
:200A800007221A60002318460837BD4680BD00BF10E000E080B582B000AF78607868FFF760
:200AA00029FF00BF0837BD4680BD80B586B000AF0346B9607A60FB7300237B61FFF73EFFDA
:200AC00078617A68B9687869FFF78EFF024697F90F3011461846FFF75DFF00BF1837BD46A7
:200AE00080BD80B582B000AF0346FB7197F907301846FFF731FF00BF0837BD4680BD80B530
:200B000082B000AF78607868FFF7A2FF034618460837BD4680BD000080B586B000AFF8600D
:200B2000B960C7E900230123FB75234B1B7E012B01D102233BE0204B01221A764CF2503014
:200B400000F070F80346FB75FB7D002B2BD1FB68002B05D13B781946B86800F01BF916E055
:200B6000FB68012B05D13B881946B86800F0EEF80DE0FB68022B05D13B681946B86800F093
:200B8000C3F804E0D7E90023B86800F08BF84CF2503000F047F80346FB75084B1B69074A72
:200BA00023F001031361044B00221A76FB7D18461837BD4680BD00BF04010020003C0240E2
:200BC00080B483B000AF0023FB710B4B1B69002B0BDA094B094A5A60074B094A5A60064B75
:200BE0001B69002B01DA0123FB71FB7918460C37BD465DF8047B7047003C024023016745EA
:200C0000AB89EFCD80B400AF054B1B69044A43F00043136100231846BD465DF8047B7047E6
:200C2000003C024080B584B000AF78600023FB601A4B0022DA61FFF72DFEF86010E07B68BA
:200C4000B3F1FF3F0CD07B68002B07D0FFF722FE0246FB68D31A7A689A4201D2032319E093
:200C60000F4BDB6803F48033002BE8D10C4BDB6803F00103002B02D0094B0122DA60084BB7
:200C8000DB6803F4F973002B03D000F0A5F8012300E0002318461037BD4680BD04010020F2
:200CA000003C024080B485B000AFF860C7E90023144B1B69134A23F440731361114B1B6915
:200CC000104A43F4407313610E4B1B690D4A43F001031361FB683A681A60BFF36F8F00BF8F
:200CE000D7E900014FF000024FF000030A000023F968043113460B6000BF1437BD465DF8C7
:200D0000047B7047003C024080B483B000AF786039600D4B1B690C4A23F4407313610A4BD3
:200D20001B69094A43F400731361074B1B69064A43F0010313617B683A681A6000BF0C37EC
:200D4000BD465DF8047B7047003C024080B483B000AF78600B467B800D4B1B690C4A23F404
:200D6000407313610A4B1B69094A43F480731361074B1B69064A43F0010313617B687A88CC
:200D80001A8000BF0C37BD465DF8047B704700BF003C024080B483B000AF78600B46FB7042
:200DA0000C4B1B690B4A23F440731361094B094A1B691361074B1B69064A43F00103136155
:200DC0007B68FA781A7000BF0C37BD465DF8047B704700BF003C024080B400AF2F4BDB68C7
:200DE00003F01003002B08D02D4BDB6943F010032B4AD361294B1022DA60284BDB6803F0B6
:200E00002003002B08D0264BDB6943F00803244AD361224B2022DA60204BDB6803F040034A
:200E2000002B08D01E4BDB6943F004031C4AD3611A4B4022DA60194BDB6803F08003002BE5
:200E400008D0174BDB6943F00203154AD361134B8022DA60114BDB6803F48073002B09D082
:200E60000F4BDB6943F001030D4AD3610B4B4FF48072DA60094BDB6803F00203002B08D0BB
:200E8000074BDB6943F02003054AD361034B0222DA6000BFBD465DF8047B7047003C02406C
:200EA0000401002080B584B000AF786039600123FB730023BB60314B1B7E012B01D102237C
:200EC00058E02E4B01221A764CF25030FFF7AAFE0346FB73FB7B002B48D13B684FF0FF32CE
:200EE0001A607B681B68012B15D17B681B69DAB27B685B681946104600F044F84CF25030C8
:200F0000FFF790FE0346FB731D4B1B691C4A23F00403136128E07B689B68BB601CE07B68CE
:200F20001B69DBB21946B86800F050F84CF25030FFF778FE0346FB73114B1B69104A23F0BB
:200F4000FA031361FB7B002B03D03B68BA681A600AE0BB680133BB607B68DA687B689B6806
:200F60001344BA689A42DAD300F078F8034B00221A76FB7B18461037BD4680BD040100208F
:200F8000003C024080B483B000AF03463960FB710D4B1B690C4A23F4407313610A4B1B6926
:200FA000094A43F004031361074B1A69FB791B021343054A43F48033136100BF0C37BD46C2
:200FC0005DF8047B704700BF003C024080B485B000AF78600B46FB700023FB60FB78002B81
:200FE00002D10023FB6010E0FB78012B03D14FF48073FB6009E0FB78022B03D14FF4007399
:20100000FB6002E04FF44073FB60134B1B69124A23F440731361104B1A690F49FB681343D7
:201020000B610D4B1B690C4A23F0F80313610A4B1A697B68DB001343074A43F002031361A7
:20104000054B1B69044A43F48033136100BF1437BD465DF8047B7047003C024080B400AF17
:20106000204B1B6803F40073002B17D01D4B1B681C4A23F4007313601A4B1B68194A43F436
:2010800000631360174B1B68164A23F400631360144B1B68134A43F400731360114B1B680D
:2010A00003F48063002B17D00E4B1B680D4A23F4806313600B4B1B680A4A43F480531360FA
:2010C000084B1B68074A23F480531360054B1B68044A43F48063136000BFBD465DF8047B48
:2010E000704700BF003C024080B489B000AF7860396000237B6100233B610023BB6100234F
:20110000FB6159E10122FB6902FA03F37B613B681B687A6913403B613A697B699A4240F059
:2011200048813B685B6803F00303012B05D03B685B6803F00303022B30D17B689B68BB61F7
:20114000FB695B00032202FA03F3DB43BA691340BB613B68DA68FB695B0002FA03F3BA6950
:201160001343BB617B68BA699A607B685B68BB610122FB6902FA03F3DB43BA691340BB6112
:201180003B685B681B0903F00102FB6902FA03F3BA691343BB617B68BA695A603B685B68BE
:2011A00003F00303032B17D07B68DB68BB61FB695B00032202FA03F3DB43BA691340BB6159
:2011C0003B689A68FB695B0002FA03F3BA691343BB617B68BA69DA603B685B6803F0030385
:2011E000022B23D1FB69DA087B68083253F82230BB61FB6903F007039B000F2202FA03F393
:20120000DB43BA691340BB613B681A69FB6903F007039B0002FA03F3BA691343BB61FB6911
:20122000DA087B680832B96943F822107B681B68BB61FB695B00032202FA03F3DB43BA6987
:201240001340BB613B685B6803F00302FB695B0002FA03F3BA691343BB617B68BA691A60FB
:201260003B685B6803F44033002B00F0A2800023FB60574B5B6C564A43F480435364544B8A
:201280005B6C03F48043FB60FB68524AFB699B08023352F82330BB61FB6903F003039B0086
:2012A0000F2202FA03F3DB43BA691340BB617B68494A934219D07B68484A934213D07B6817
:2012C000474A93420DD07B68464A934207D07B68454A934201D1042308E0072306E003234E
:2012E00004E0022302E0012300E00023FA6902F0030292009340BA691343BB613549FB69A6
:201300009B080233BA6941F82320384B1B68BB613B69DB43BA691340BB613B685B6803F483
:201320008033002B03D0BA693B691343BB612F4ABB6913602D4B5B68BB613B69DB43BA6977
:201340001340BB613B685B6803F40033002B03D0BA693B691343BB61244ABB695360234BA4
:201360009B68BB613B69DB43BA691340BB613B685B6803F48013002B03D0BA693B691343EF
:20138000BB611A4ABB699360184BDB68BB613B69DB43BA691340BB613B685B6803F4001330
:2013A000002B03D0BA693B691343BB610F4ABB69D360FB690133FB61FB690F2B7FF6A2AEEF
:2013C00000BF00BF2437BD465DF8047B704700BF003802400038014000000240000402406C
:2013E00000080240000C024000100240003C014080B487B000AF7860396000233B61002319
:20140000FB600023BB6000237B61BBE001227B6902FA03F33B613A683B691340FB60FA68AE
:201420003B699A4240F0AB805C4A7B699B08023352F82330BB607B6903F003039B000F220E
:2014400002FA03F3BA681340BB607B68544A934219D07B68534A934213D07B68524A93423F
:201460000DD07B68514A934207D07B68504A934201D1042308E0072306E0032304E00223F3
:2014800002E0012300E000237A6902F0030292009340BA689A4232D1464B1A68FB68DB436F
:2014A000444913400B60434B5A68FB68DB43414913404B603F4B9A68FB68DB433D491340A2
:2014C0008B603C4BDA68FB68DB433A491340CB607B6903F003039B000F2202FA03F3BB6020
:2014E0002E4A7B699B08023352F82310BB68DA432A487B699B080A40023340F823207B6825
:201500001A687B695B00032101FA03F3DB431A407B681A607B69DA087B68083253F82210C0
:201520007B6903F007039B000F2202FA03F3DB437A69D20819407B68083243F822107B686B
:20154000DA687B695B00032101FA03F3DB431A407B68DA607B685A6801217B6901FA03F3C4
:20156000DB431A407B685A607B689A687B695B00032101FA03F3DB431A407B689A607B69E4
:2015800001337B617B690F2B7FF640AF00BF00BF1C37BD465DF8047B704700BF0038014022
:2015A000000002400004024000080240000C024000100240003C014080B485B000AF78604C
:2015C0000B467B807B681A697B881340002B02D00123FB7301E00023FB73FB7B18461437E3
:2015E000BD465DF8047B7047F0B58FB00AAF78607B68002B01D101230FE17B681B68BB6073
:201600007B6893F8BD33DBB2002B06D17B68002283F8BC23786805F07BFA7B68032283F8B1
:20162000BD23BB68DB6B03F48073002B02D17B6800221A617B681B68184601F074FE7B68EF
:201640001B683B607E686D4606F110040FCC0FC50FCC0FC594E8030085E80300331D0ECB52
:20166000386801F04BFD0346002B05D07B68022283F8BD230123D0E07B681B68002118462D
:2016800001F062FE0023FB734AE0FA7B79681346DB009B1A9B000B443D3301221A70FA7B83
:2016A00079681346DB009B1A9B000B443C33FA7B1A70FA7BFB7B98B279681346DB009B1A09
:2016C0009B000B44423302461A80FA7B79681346DB009B1A9B000B443F3300221A70FA7B0D
:2016E00079681346DB009B1A9B000B44443300221A60FA7B79681346DB009B1A9B000B44FA
:20170000483300221A60FA7B79681346DB009B1A9B000B44503300221A60FB7B0133FB7352
:20172000FA7B7B685B689A42AFD30023FB7344E0FA7B79681346DB009B1A9B000B4403F25D
:20174000FD1300221A70FA7B79681346DB009B1A9B000B4403F5FE73FA7B1A70FA7B7968E6
:201760001346DB009B1A9B000B4403F2FF1300221A70FA7B79681346DB009B1A9B000B44BA
:2017800003F5017300221A60FA7B79681346DB009B1A9B000B4403F5027300221A60FA7B9A
:2017A00079681346DB009B1A9B000B4403F5047300221A60FB7B0133FB73FA7B7B685B6837
:2017C0009A42B5D37B681B683B607E686D4606F110040FCC0FC50FCC0FC594E8030085E8B6
:2017E0000300331D0ECB386801F0FAFD0346002B05D07B68022283F8BD2301230DE07B6896
:20180000002283F838207B68012283F8BD237B681B68184602F09AFD002318461437BD4656
:20182000F0BD80B584B000AF78607B681B68FB607B6893F8BC33012B01D1022320E07B68E7
:20184000012283F8BC237B689B6A012B09D17B689B69012B05D0FB689B6B43F48032FB6880
:201860009A637B681B68184601F04CFD7B681B68184602F04AFD7B68002283F8BC230023EE
:2018800018461037BD4680BD80B584B000AF78607B681B68FB607B6893F8BC33012B01D157
:2018A000022326E07B68012283F8BC237B681B68184601F038FD7B681B68184602F046FDBA
:2018C0007B681B681021184601F0EEFE7B689B6A012B09D17B689B69012B05D0FB689B6BF7
:2018E00023F48032FB689A637B68002283F8BC23002318461037BD4680BD90B58DB000AF27
:2019000078607B681B683B623B6AFB617B681B68184602F0CFFD0346002B40F09D837B68C2
:201920001B68184602F033FD0346002B00F093837B681B68184602F02AFD034603F002030C
:20194000022B07D17B681B685A697B681B6802F002025A617B681B68184602F018FD03462E
:2019600003F01003102B61D17B681B689A697B681B6822F010029A613B6A1B6ABB61BB699C
:2019800003F00F021346DB009B1A9B0003F5FC737A68134404337B61BB695B0C03F00F037C
:2019A000022B24D1BA6947F6F0731340002B35D07B69D968BB691B099BB2C3F30A039BB2F5
:2019C0001A46386A02F04FFB7B69DA68BB691B09C3F30A031A447B69DA607B699A69BB6911
:2019E0001B09C3F30A031A447B699A6116E0BB695B0C03F00F03062B10D17B6803F571736C
:201A000008221946386A02F02EFB7B699A69BB691B09C3F30A031A447B699A617B681B68EB
:201A20009A697B681B6842F010029A617B681B68184602F0ACFC034603F40023B3F5002F66
:201A40006ED100237B627B681B68184602F0B2FCB86262E0BB6A03F00103002B57D07B6836
:201A60001B687A6AD2B21146184602F0D7FC38613B6903F00103002B0CD07B6A5A01FB6922
:201A8000134403F530631A4601239360796A786800F04EFD3B6903F00803002B0CD07B6A61
:201AA0005A01FB69134403F530631A4608239360796A786800F048FE3B6903F01003002B39
:201AC00008D07B6A5A01FB69134403F530631A46102393603B6903F02003002B08D07B6A80
:201AE0005A01FB69134403F530631A46202393603B6903F40053002B09D07B6A5A01FB6919
:201B0000134403F530631A464FF4005393607B6A01337B62BB6A5B08BB62BB6A002B99D1A5
:201B20007B681B68184602F032FC034603F48023B3F5802F40F0C0807B681B68184602F061
:201B400053FCB86200237B62B2E0BB6A03F00103002B00F0A7807B681B687A6AD2B2114607
:201B6000184602F079FC38613B6903F00103002B57D07B6A03F00F03012202FA03F3FB60C0
:201B8000FB6903F500635A6BFB68DB43F96901F5006113404B637B6A5A01FB69134403F593
:201BA00010631A46012393607B681B69012B32D179687A6A1346DB009B1A9B000B44483392
:201BC000196878687A6A1346DB009B1A9B00034444331B68194478687A6A1346DB009B1AF1
:201BE0009B000344483319607B6A002B13D179687A6A1346DB009B1A9B000B4450331B687D
:201C0000002B08D17B6818687B6803F571731A46012102F081FC7B6ADBB21946786804F008
:201C2000F8FF3B6903F00803002B08D07B6A5A01FB69134403F510631A46082393603B6980
:201C400003F01003002B08D07B6A5A01FB69134403F510631A46102393603B6903F04003B5
:201C6000002B08D07B6A5A01FB69134403F510631A46402393603B6903F00203002B08D0A6
:201C80007B6A5A01FB69134403F510631A46022393603B6903F08003002B03D0796A78688B
:201CA00000F0B9FB7B6A01337B62BB6A5B08BB62BB6A002B7FF449AF7B681B68184602F074
:201CC00066FB034603F00043B3F1004F22D1FB6903F500635B68FA6902F5006223F00103E9
:201CE00053607B6893F8F433012B08D17B68002283F8F4230021786800F0C4FD02E078688C
:201D000004F0F4FF7B681B685A697B681B6802F000425A617B681B68184602F038FB03462C
:201D200003F40063B3F5006F12D1FB6903F500639B6803F00103012B02D1786804F0B0FF14
:201D40007B681B685A697B681B6802F400625A617B681B68184602F01AFB034603F4805303
:201D6000B3F5805F40F0C780FB6903F500635B68FA6902F5006223F0010353607B681B68F7
:201D80001021184601F090FC0023FB6256E0FB6A5A01FB69134403F510631A464FF67F3344
:201DA0009360FB6A5A01FB69134403F510631B68FA6A5101FA690A4402F5106223F40013CD
:201DC0001360FB6A5A01FB69134403F510631B68FA6A5101FA690A4402F5106243F00063C1
:201DE0001360FB6A5A01FB69134403F530631A464FF67F339360FB6A5A01FB69134403F5AD
:201E000030631B68FA6A5101FA690A4402F5306223F400131360FB6A5A01FB69134403F5AC
:201E200030631B68FA6A5101FA690A4402F5306243F000631360FB6A0133FB627B685B68F7
:201E4000FA6A9A42A3D3FB6903F50063DB69FA6902F5006243F00113D3617B681B6B002BFE
:201E600016D0FB6903F50063D3F88430FA6902F5006243F00B03C2F88430FB6903F5006314
:201E80005B6CFA6902F5006243F00B03536415E0FB6903F500635B69FA6902F5006243F45C
:201EA000005343F02B035361FB6903F500631B69FA6902F5006243F00B031361FB6903F5AA
:201EC00000631B68FA6902F5006223F4FE6313607B6818687B681B69D9B27B6803F5717361
:201EE0001A4602F019FB7B681B685A697B681B6802F480525A617B681B68184602F047FA73
:201F0000034603F40053B3F5005F24D17B681B68184602F0DDFA7B681B68184601F021FCD3
:201F200003461A467B68DA607B681C6801F0DAF801467B68DB68DBB21A46204601F040F9C7
:201F4000786804F08EFE7B681B685A697B681B6802F400525A617B681B68184602F017FAC8
:201F6000034603F00803082B0AD1786804F06BFE7B681B685A697B681B6802F008025A6189
:201F80007B681B68184602F002FA034603F48013B3F5801F0FD100237B627B6ADBB21946C4
:201FA000786804F0C3FE7B681B685A697B681B6802F480125A617B681B68184602F0E7F924
:201FC000034603F40013B3F5001F0FD100237B627B6ADBB21946786804F096FE7B681B6868
:201FE0005A697B681B6802F400125A617B681B68184602F0CCF9034603F08043B3F1804F08
:020000040800F2
:202000000AD1786804F0A4FE7B681B685A697B681B6802F080425A617B681B68184602F0BB
:20202000B6F9034603F00403042B15D17B681B685B68BB61BB6903F00403002B02D0786859
:2020400004F094FE7B681B6859687B681B68BA690A435A6000E000BF3437BD4690BD80B5B4
:2020600082B000AF78600B46FB707B6893F8BC33012B01D1022313E07B68012283F8BC2318
:202080007B68FA7883F838207B681B68FA781146184602F014F97B68002283F8BC2300230A
:2020A00018460837BD4680BD80B584B000AF7860084611461A460346FB700B463B80134635
:2020C000BB700023FB7297F90330002B0FDAFB7803F00F021346DB009B1A9B0038337A6826
:2020E00013440433FB60FB6801225A700FE0FB7803F00F021346DB009B1A9B0003F5FC7356
:202100007A6813440433FB60FB6800225A70FB7803F00F03DAB2FB681A703A88FB689A6095
:20212000FB68BA78DA70FB685B78002B04D0FB681B789AB2FB68DA80BB78022B02D1FB68F6
:2021400000221A717B6893F8BC33012B01D102230EE07B68012283F8BC237B681B68F9683D
:20216000184601F023FB7B68002283F8BC23FB7A18461037BD4680BD80B586B000AFF860C7
:202180007A603B600B46FB72FB7A03F00F021346DB009B1A9B0003F5FC73FA6813440433B8
:2021A0007B617B697A68DA607B693A685A617B6900229A617B6900225A70FB7A03F00F03B7
:2021C000DAB27B691A70FB681B69012B02D17A687B691A61FB7A03F00F03002B09D1FB68FC
:2021E0001868FB681B69DBB21A46796901F0AAFD08E0FB681868FB681B69DBB21A46796990
:2022000001F05CFB002318461837BD4680BD80B586B000AFF8607A603B600B46FB72FB7A4C
:2022200003F00F021346DB009B1A9B003833FA68134404337B617B697A68DA607B693A6859
:202240005A617B6900229A617B6901225A70FB7A03F00F03DAB27B691A70FB681B69012B6A
:2022600002D17A687B691A61FB7A03F00F03002B09D1FB681868FB681B69DBB21A46796932
:2022800001F060FD08E0FB681868FB681B69DBB21A46796901F012FB002318461837BD469E
:2022A00080BD80B584B000AF78600B46FB70FB7803F00F027B685B689A4201D9012350E00E
:2022C00097F90330002B0FDAFB7803F00F021346DB009B1A9B0038337A6813440433FB60F6
:2022E000FB6801225A700DE0FA781346DB009B1A9B0003F5FC737A6813440433FB60FB6816
:2023000000225A70FB6801229A70FB7803F00F03DAB2FB681A707B6893F8BC33012B01D1F5
:2023200002231EE07B68012283F8BC237B681B68F968184601F0EFFEFB7803F00F03002B74
:202340000AD17B6818687B681B69D9B27B6803F571731A4602F0E0F87B68002283F8BC2305
:20236000002318461037BD4680BD80B584B000AF78600B46FB70FB7803F00F027B685B688C
:202380009A4201D9012342E097F90330002B0FDAFB7803F00F021346DB009B1A9B00383304
:2023A0007A6813440433FB60FB6801225A700FE0FB7803F00F021346DB009B1A9B0003F520
:2023C000FC737A6813440433FB60FB6800225A70FB6800229A70FB7803F00F03DAB2FB687E
:2023E0001A707B6893F8BC33012B01D102230EE07B68012283F8BC237B681B68F968184660
:2024000001F0F7FE7B68002283F8BC23002318461037BD4680BD80B58AB002AF78603960DE
:202420007B681B687B617B693B613A681346DB009B1A9B0038337A6813440433FB60FB681B
:202440009A69FB685B699A4201D901236CE0FB685A69FB689B69D31AFB61FB689B68FA698D
:202460009A4202D9FB689B68FB61FB6903339B08BB612BE0FB685A69FB689B69D31AFB61A9
:20248000FB689B68FA699A4202D9FB689B68FB61FB6903339B08BB61FB68D9683B68DAB2CE
:2024A000FB6998B27B681B69DBB200930346786901F09BFDFB68DA68FB691A44FB68DA6030
:2024C000FB689A69FB691A44FB689A613B685A013B69134403F510639B699BB2BA699A42C2
:2024E00009D8FB689A69FB685B699A4203D2FB685B69002BBED1FB685A69FB689B699A4273
:2025000011D83B6803F00F03012202FA03F3BB603B6903F500635A6BBB68DB43396901F55D
:20252000006113404B63002318462037BD4680BD80B586B000AF786039607B681B687B6154
:202540007B693B617B693C3304331B68FB603B685A013B69134403F530639B68BB607B680E
:202560001B69012B40F0A080BB6803F00803002B15D0FB68724A934240F2DD80BB6803F48D
:202580000043002B00F0D7803B685A013B69134403F530631A464FF400439360CBE0BB685B
:2025A00003F02003002B09D03B685A013B69134403F530631A4620239360BCE0BB6803F035
:2025C0002803002B40F0B780FB685D4A93420FD9BB6803F40043002B0AD03B685A013B6973
:2025E000134403F530631A464FF400439360A2E079683A681346DB009B1A9B000B4403F550
:2026000001731A683B6859013B690B4403F530631B69C3F31203D11A78683A681346DB0059
:202620009B1A9B00034403F50573196079683A681346DB009B1A9B000B4403F502731968D6
:2026400078683A681346DB009B1A9B00034403F501731B68194478683A681346DB009B1A76
:202660009B00034403F5027319603B68002B14D179683A681346DB009B1A9B000B4403F591
:2026800004731B68002B08D17B6818687B6803F571731A46012101F03FFF3B68DBB21946DA
:2026A000786804F09BFA46E0FB68264A934224D1BB6803F40043002B0AD03B685A013B69EA
:2026C000134403F530631A464FF40043936032E0BB6803F02003002B08D03B685A013B694F
:2026E000134403F530631A46202393603B68DBB21946786804F072FA1DE03B68002B14D1E3
:2027000079683A681346DB009B1A9B000B4403F504731B68002B08D17B6818687B6803F52F
:2027200071731A46002101F0F7FE3B68DBB21946786804F053FA002318461837BD4680BD8E
:202740000A30544F0A31544F80B586B000AF786039607B681B687B617B693B617B693C331E
:2027600004331B68FB603B685A013B69134403F530639B68BB60FB68154A93420ED9BB6801
:2027800003F40043002B09D03B685A013B69134403F530631A464FF400439360786804F0CA
:2027A0000BFAFB680A4A93420CD97B681B69012B08D17B6818687B6803F571731A46012193
:2027C00001F0AAFE002318461837BD4680BD00BF0A30544F80B485B000AF78600B46FB7008
:2027E00013463B807B681B685B6ABB60FB78002B07D13B8819047B681B68BA680A439A6258
:2028000028E07B681B689B6A1B0CBA681344BB600023FB730DE07B681A68FB7B40339B0023
:2028200013445B681B0CBA681344BB60FB7B0133FB73FA7BFB78013B9A42ECD33B8818040D
:202840007B681968FB78013BBA68024340339B000B445A60002318461437BD465DF8047B44
:20286000704780B483B000AF78600B467B807B681B687A885A62002318460C37BD465DF827
:20288000047B704780B483B000AF78600B46FB7000BF0C37BD465DF8047B704780B586B05D
:2028A00000AF78607B68002B01D1012367E27B681B6803F00103002B75D0884B9B6803F0AE
:2028C0000C03042B0CD0854B9B6803F00C03082B12D1824B5B6803F48003B3F5800F0BD1D6
:2028E0007E4B1B6803F40033002B5BD07B685B68002B57D1012342E27B685B68B3F5803FBE
:2029000006D1764B1B68754A43F4803313601DE07B685B68B3F5A02F0CD1704B1B686F4A92
:2029200043F4802313606D4B1B686C4A43F4803313600BE0694B1B68684A23F480331360EB
:20294000664B1B68654A23F4802313607B685B68002B13D0FDF79EFF386108E0FDF79AFF14
:2029600002463B69D31A642B01D9032307E25B4B1B6803F40033002BF0D014E0FDF78AFF57
:20298000386108E0FDF786FF02463B69D31A642B01D90323F3E1514B1B6803F40033002B8D
:2029A000F0D100E000BF7B681B6803F00203002B63D04A4B9B6803F00C03002B0BD0474BC9
:2029C0009B6803F00C03082B1CD1444B5B6803F48003002B16D1414B1B6803F00203002BC2
:2029E00005D07B68DB68012B01D00123C7E13B4B1B6823F0F8027B681B69DB0037491343E5
:202A00000B603AE07B68DB68002B20D0344B01221A60FDF73FFF386108E0FDF73BFF0246AB
:202A20003B69D31A022B01D90323A8E12B4B1B6803F00203002BF0D0284B1B6823F0F80270
:202A40007B681B69DB00254913430B6015E0244B00221A60FDF71EFF386108E0FDF71AFF66
:202A600002463B69D31A022B01D9032387E11B4B1B6803F00203002BF0D17B681B6803F0C2
:202A80000803002B36D07B685B69002B16D0154B01221A60FDF7FEFE386108E0FDF7FAFEE8
:202AA00002463B69D31A022B01D9032367E10B4B5B6F03F00203002BF0D01BE0094B002254
:202AC0001A60FDF7E7FE38610EE0FDF7E3FE02463B69D31A022B07D9032350E10038024090
:202AE00000004742800E4742884B5B6F03F00203002BEAD17B681B6803F00403002B00F040
:202B000097800023FB75814B1B6C03F08053002B0FD10023BB607D4B1B6C7C4A43F080538E
:202B200013647A4B1B6C03F08053BB60BB680123FB75774B1B6803F48073002B18D1744B38
:202B40001B68734A43F480731360FDF7A3FE386108E0FDF79FFE02463B69D31A022B01D911
:202B600003230CE16A4B1B6803F48073002BF0D07B689B68012B06D1644B1B6F634A43F033
:202B8000010313671CE07B689B68052B0CD15F4B1B6F5E4A43F0040313675C4B1B6F5B4A62
:202BA00043F0010313670BE0584B1B6F574A23F001031367554B1B6F544A23F004031367BE
:202BC0007B689B68002B15D0FDF764FE38610AE0FDF760FE02463B69D31A41F28832934239
:202BE00001D90323CBE0494B1B6F03F00203002BEED014E0FDF74EFE38610AE0FDF74AFE38
:202C000002463B69D31A41F28832934201D90323B5E03E4B1B6F03F00203002BEED1FB7D17
:202C2000012B05D1394B1B6C384A23F0805313647B689B69002B00F0A180344B9B6803F010
:202C40000C03082B5CD07B689B69022B41D1314B00221A60FDF71EFE386108E0FDF71AFE2B
:202C600002463B69D31A022B01D9032387E0274B1B6803F00073002BF0D17B68DA697B6897
:202C80001B6A1A437B685B6A9B011A437B689B6A5B08013B1B041A437B68DB6A1B061B4901
:202CA00013434B601B4B01221A60FDF7F3FD386108E0FDF7EFFD02463B69D31A022B01D9EB
:202CC00003235CE0114B1B6803F00073002BF0D054E0104B00221A60FDF7DCFD386108E0E9
:202CE000FDF7D8FD02463B69D31A022B01D9032345E0064B1B6803F00073002BF0D13DE09D
:202D00007B689B69012B07D1012338E00038024000700040600047421B4B5B68FB607B6812
:202D20009B69012B28D0FB6803F480027B68DB699A4221D1FB6803F03F027B681B6A9A42BF
:202D40001AD1FA6847F6C07313407A68526A9201934211D1FB6803F440327B689B6A5B0864
:202D6000013B1B049A4207D1FB6803F070627B68DB6A1B069A4201D0012300E000231846A1
:202D80001837BD4680BD00BF0038024080B584B000AF786039607B68002B01D10123CCE032
:202DA000684B1B6803F007033A689A420CD9654B3A68D2B21A70634B1B6803F007033A684D
:202DC0009A4201D00123B8E07B681B6803F00203002B20D07B681B6803F00403002B05D0B1
:202DE000594B9B68584A43F4E05393607B681B6803F00803002B05D0534B9B68524A43F455
:202E000060439360504B9B6823F0F0027B689B684D4913438B607B681B6803F00103002B34
:202E200044D07B685B68012B07D1474B1B6803F40033002B19D101237FE07B685B68022B2A
:202E400003D07B685B68032B07D13F4B1B6803F00073002B09D101236FE03B4B1B6803F00C
:202E60000203002B01D1012367E0374B9B6823F003027B685B68344913438B60FDF70AFDE9
:202E8000F8600AE0FDF706FD0246FB68D31A41F28832934201D903234FE02B4B9B6803F004
:202EA0000C027B685B689B009A42EBD1254B1B6803F007033A689A420CD2224B3A68D2B24C
:202EC0001A70204B1B6803F007033A689A4201D0012332E07B681B6803F00403002B08D095
:202EE000194B9B6823F4E0527B68DB68164913438B607B681B6803F00803002B09D0124B97
:202F00009B6823F460427B681B69DB000E4913438B6000F021F802460B4B9B681B0903F05A
:202F20000F030A49CB5C22FA03F3094A1360094B1B681846FDF76AFC002318461037BD46D3
:202F400080BD00BF003C024000380240FC71000800000020040000202DE9B04F90B000AFC0
:202F600000237B630023FB6300233B630023BB63594B9B6803F00C03082B0DD0082B00F2EF
:202F8000A180002B02D0042B03D09BE0534BBB639BE0534BBB6398E04F4B5B6803F03F0399
:202FA0007B634D4B5B6803F48003002B28D04A4B5B689B0900223B627A623B6AC3F3080041
:202FC0000021474B03FB01F2002300FB03F31344434AA0FB0212FA620A46BA62FA6A134423
:202FE000FB627B6B0022BB61FA61D7E90623D7E90A01FDF7F1F802460B461346FB6353E0E1
:20300000354B5B689B0900223B617A613B69C3F3080A4FF0000B52465B464FF000004FF0C3
:203020000001590141EAD261500102460B46B2EB0A0863EB0B094FF000024FF000034FEA20
:20304000891343EA98634FEA8812B2EB080463EB09054FF000024FF00003EB0043EA547372
:20306000E20014461D4614EB0A033B6045EB0B037B604FF000024FF00003D7E900452946FA
:203080008B02214643EA915321468A02104619467B6B0022BB60FA60D7E90223FDF79CF899
:2030A00002460B461346FB630B4B5B681B0C03F0030301335B003B63FA6B3B6BB2FBF3F3BC
:2030C000BB6302E0054BBB6300BFBB6B18464037BD46BDE8B08F00BF003802400024F40090
:2030E00040787D0180B400AF034B1B681846BD465DF8047B704700BF0000002084B080B5B2
:2031000084B000AF786007F11C0080E80E003B6B012B22D17B689B6B23F480327B689A6313
:203120007B68DB6823F4840323F040037A68D3607B68DB6823F440127B68DA60FB6C012B21
:2031400005D17B68DB6843F480127B68DA60786801F040FA0346FB731AE07B68DB6843F078
:2031600040027B68DA60786801F034FA0346FB733B6C002B06D17B689B6B43F480327B68DC
:203180009A6305E07B689B6B23F480327B689A63BB6A012B0BD17B689B6843F006027B688A
:2031A0009A607B689B6843F020027B689A60FB7B18461037BD46BDE8804004B0704700000F
:2031C00080B487B000AFF860B9601346FB71FB79022B65D1BB68414A934206D9BB68404AB9
:2031E000934202D20F237B6162E0BB683C4A934206D3BB683B4A934202D20E237B6157E0EA
:20320000BB68384A934206D3BB68374A934202D20D237B614CE0BB68334A934206D3BB6865
:20322000324A934202D80C237B6141E0BB682F4A934206D9BB682E4A934202D80B237B6193
:2032400036E0BB682A4A934206D9BB68294A934202D80A237B612BE0BB68264A934206D96D
:20326000BB68254A934202D209237B6120E0BB68214A934206D3BB68204A934202D8082368
:203280007B6115E0BB681D4A934206D9BB681C4A934202D207237B610AE006237B6107E011
:2032A000FB79002B02D109237B6101E009237B61FB68DB6823F47052FB68DA60FB68DA68EA
:2032C0007B699B0203F470531A43FB68DA60002318461C37BD465DF8047B7047BFACD80014
:2032E000C0E1E4000024F400807306019F491A01FF2C31013FA44C0100366E011FABA60191
:203300000048E80180B483B000AF78607B689B6843F001027B689A60002318460C37BD46CE
:203320005DF8047B704780B483B000AF78607B689B6823F001027B689A60002318460C3777
:20334000BD465DF8047B704780B584B000AF78600B46FB700023FB607B68DB6823F0C0427A
:203360007B68DA60FB78012B15D17B68DB6843F000527B68DA600120FDF798FAFB680133A5
:20338000FB60786801F096F80346012B1ED0FB68312BF0D91AE0FB78002B15D17B68DB68E4
:2033A00043F080427B68DA600120FDF77FFAFB680133FB60786801F07DF80346002B05D0EC
:2033C000FB68312BF0D901E0012305E0FB68322B01D1012300E0002318461037BD4680BDDD
:2033E00084B080B586B000AF786007F1240080E80E000023FB757B68FB6000233B6109E09C
:203400007A683B6940339B00134400225A603B6901333B613B690E2BF2D9FB6C002B1CD14A
:20342000FB6803F500635B68FA6802F5006243F0020353607B689B6B43F400127B689A6353
:203440007B689B6B23F400227B689A637B689B6B23F480227B689A630BE07B689B6B23F4FD
:2034600000127B689A637B689B6B43F400227B689A63FB6803F560631A4600231360FB68C1
:2034800003F500631946FB6803F500631A460B681360BB6B012B0CD1FB6A002B04D10021B9
:2034A000786800F045F908E00121786800F040F903E00321786800F03BF91021786800F0DF
:2034C000F3F80346002B01D00123FB75786800F00FF90346002B01D00123FB75FB6803F51C
:2034E00000631A4600231361FB6803F500631A4600235361FB6803F500631A460023D36108
:2035000000233B6143E03B695A01FB68134403F510631B6803F00043B3F1004F18D13B696C
:20352000002B0AD13B695A01FB68134403F510631A464FF00063136013E03B695A01FB6897
:20354000134403F510631A464FF09043136008E03B695A01FB68134403F510631A46002335
:2035600013603B695A01FB68134403F510631A46002313613B695A01FB68134403F5106399
:203580001A464FF67F3393603B6901333B617B6A3A699A42B7D300233B6143E03B695A019E
:2035A000FB68134403F530631B6803F00043B3F1004F18D13B69002B0AD13B695A01FB6825
:2035C000134403F530631A464FF00063136013E03B695A01FB68134403F530631A464FF0BE
:2035E0009043136008E03B695A01FB68134403F530631A46002313603B695A01FB681344AA
:2036000003F530631A46002313613B695A01FB68134403F530631A464FF67F3393603B69F6
:2036200001333B617B6A3A699A42B7D3FB6803F500631B69FA6802F5006223F48073136151
:203640007B6800229A617B686FF080425A613B6B002B05D17B689B6943F010027B689A61FA
:203660007B689A690F4B13437A689361FB6B002B05D07B689B6943F008027B689A61FB6C0F
:20368000012B07D17B689B6943F0804343F004037A689361FB7D18461837BD46BDE88040AC
:2036A00004B0704700383C8080B485B000AF786039600023FB603B689B0143F020027B682D
:2036C0001A61FB680133FB60084A934201D9032306E07B681B6903F02003202BF1D00023C4
:2036E00018461437BD465DF8047B7047400D030080B485B000AF78600023FB607B681022C0
:203700001A61FB680133FB60084A934201D9032306E07B681B6903F01003102BF1D00023A3
:2037200018461437BD465DF8047B7047400D030080B485B000AF78600B46FB707B68FB6018
:20374000FB6803F500631A68FB78F96801F5006113430B60002318461437BD465DF8047B9A
:20376000704780B487B000AF78607B683B613B6903F500639B6803F00603FB60FB68002B3A
:2037800002D10023FB750AE0FB68022B02D0FB68062B02D10223FB7501E00F23FB75FB7D80
:2037A00018461C37BD465DF8047B704780B485B000AF786039607B68FB603B681B78BB60B2
:2037C0003B685B78012B3AD1FB6803F50063DA693B681B7803F00F03012101FA03F39BB2A0
:2037E000F96801F500611343CB61BB685A01FB68134403F510631B6803F40043002B55D1DE
:20380000BB685A01FB68134403F510631A683B689B68C3F30A013B68DB789B041943BB6808
:203820009B050B431343BA685101FA680A4402F5106243F0805343F40043136036E0FB684B
:2038400003F50063DA693B681B7803F00F03012101FA03F31B04F96801F500611343CB6123
:20386000BB685A01FB68134403F530631B6803F40043002B1AD1BB685A01FB68134403F582
:2038800030631A683B689B68C3F30A013B68DB789B040B431343BA685101FA680A4402F558
:2038A000306243F0805343F400431360002318461437BD465DF8047B7047000080B58AB0BA
:2038C00002AFF860B9601346FB71FB68FB61BB681B78BB61BB685B78012B40F05C81BB681E
:2038E0005B69002B32D1BB695A01FB69134403F510631B69BA695101FA690A4402F510621E
:2039000023F0FF5323F4C0131361BB695A01FB69134403F510631B69BA695101FA690A4495
:2039200002F5106243F400231361BB695A01FB69134403F510631B69BA695101FA690A4401
:2039400002F51062DB0CDB04136174E0BB695A01FB69134403F510631B69BA695101FA696F
:203960000A4402F51062DB0CDB041361BB695A01FB69134403F510631B69BA695101FA6955
:203980000A4402F5106223F0FF5323F4C0131361BB695A01FB69134403F510631A69BB6862
:2039A0005969BB689B680B44591EBB689B68B1FBF3F3D9049D4B0B40B9694801F96901447F
:2039C00001F5106113430B61BB695A01FB69134403F510631A69BB685B69C3F31203B969C2
:2039E0004801F969014401F5106113430B61BB68DB78012B1FD1BB695A01FB69134403F5EA
:203A000010631B69BA695101FA690A4402F5106223F0C0431361BB695A01FB69134403F564
:203A200010631B69BA695101FA690A4402F5106243F000531361FB79012B4BD1BB681B69A3
:203A4000002B09D0BB695A01FB69134403F510631A46BB681B695361BB68DB78012B28D167
:203A6000FB6903F500639B6803F48073002B10D1BB695A01FB69134403F510631B68BA6943
:203A80005101FA690A4402F5106243F0005313600FE0BB695A01FB69134403F510631B68AA
:203AA000BA695101FA690A4402F5106243F080531360BB695A01FB69134403F510631B68D6
:203AC000BA695101FA690A4402F5106243F0044313602FE1BB695A01FB69134403F51063B5
:203AE0001B68BA695101FA690A4402F5106243F004431360BB68DB78012B15D0BB685B6959
:203B0000002B00F01781FB6903F500635A6BBB681B7803F00F03012101FA03F3F96901F548
:203B2000006113434B6305E1FB6903F500639B6803F48073002B10D1BB695A01FB69134448
:203B400003F510631B68BA695101FA690A4402F5106243F0005313600FE0BB695A01FB691D
:203B6000134403F510631B68BA695101FA690A4402F5106243F080531360BB68D968BB6871
:203B80001A78BB685B6998B2FB7900930346F86800F02BFACEE0BB695A01FB69134403F5BD
:203BA00030631B69BA695101FA690A4402F53062DB0CDB041361BB695A01FB69134403F5D3
:203BC00030631B69BA695101FA690A4402F5306223F0FF5323F4C0131361BB685B69002B4A
:203BE00026D1BB695A01FB69134403F530631A69BB689B68C3F31203B9694801F969014483
:203C000001F5306113430B61BB695A01FB69134403F530631B69BA695101FA690A4402F5F5
:203C2000306243F40023136136E000BF0000F81FBB685A69BB689B6813445A1EBB689B6837
:203C4000B2FBF3F3FB82BB695A01FB69134403F530631A69FB8AD904394B0B40B969480170
:203C6000F969014401F5306113430B61BB695A01FB69134403F530631A69BB689B68F98A63
:203C800001FB03F3C3F31203B9694801F969014401F5306113430B61FB79012B0DD1BB686B
:203CA000DB68002B09D0BB68D968BB695A01FB69134403F530630A465A61BB68DB78012BE7
:203CC00028D1FB6903F500639B6803F48073002B10D1BB695A01FB69134403F530631B68EB
:203CE000BA695101FA690A4402F5306243F0005313600FE0BB695A01FB69134403F5306368
:203D00001B68BA695101FA690A4402F5306243F080531360BB695A01FB69134403F5306333
:203D20001B68BA695101FA690A4402F5306243F004431360002318462037BD4680BD00BF8D
:203D40000000F81F80B487B000AFF860B9601346FB71FB687B61BB681B783B61BB685B7875
:203D6000012B40F0CD80BB685B69002B32D13B695A017B69134403F510631B693A69510167
:203D80007A690A4402F5106223F0FF5323F4C01313613B695A017B69134403F510631B699D
:203DA0003A6951017A690A4402F5106243F4002313613B695A017B69134403F510631B697D
:203DC0003A6951017A690A4402F51062DB0CDB0413614EE03B695A017B69134403F5106347
:203DE0001B693A6951017A690A4402F51062DB0CDB0413613B695A017B69134403F51063D1
:203E00001B693A6951017A690A4402F5106223F0FF5323F4C0131361BB685A69BB689B68C0
:203E20009A4203D9BB689A68BB685A613B695A017B69134403F510631B693A6951017A69C6
:203E40000A4402F5106243F4002313613B695A017B69134403F510631A69BB685B69C3F318
:203E60001203396948017969014401F5106113430B61FB79012B1ED1BB681B69002B09D0B8
:203E80003B695A017B69134403F510631A46BB681B6953613B695A017B69134403F510631D
:203EA0001B683A6951017A690A4402F5106243F00443136092E03B695A017B69134403F55F
:203EC00010631B683A6951017A690A4402F5106243F004431360BB685B69002B7ED07B692C
:203EE00003F500635A6BBB681B7803F00F03012101FA03F3796901F5006113434B636DE04A
:203F00003B695A017B69134403F530631B693A6951017A690A4402F53062DB0CDB0413616F
:203F20003B695A017B69134403F530631B693A6951017A690A4402F5306223F0FF5323F40D
:203F4000C0131361BB685B69002B03D0BB689A68BB685A613B695A017B69134403F530636D
:203F60001B693A6951017A690A4402F5306243F4002313613B695A017B69134403F530637B
:203F80001A69BB689B68C3F31203396948017969014401F5306113430B61FB79012B0DD1D4
:203FA000BB68DB68002B09D0BB68D9683B695A017B69134403F530630A465A613B695A0164
:203FC0007B69134403F530631B683A6951017A690A4402F5306243F004431360002318467B
:203FE0001C37BD465DF8047B704780B489B000AFF860B96011461A460B46FB711346BB804B
:020000040800F2
:20400000FB687B61BB68FB6197F82830002B23D1BB8803339B083B610023BB6118E0FB7979
:204020001A037B69134403F580531A46FB691B681360FB690133FB61FB690133FB61FB6957
:204040000133FB61FB690133FB61BB690133BB61BA693B699A42E2D3002318462437BD4631
:204060005DF8047B704780B48BB000AFF860B9601346FB80FB68BB61BB687B62FB889B08AD
:204080009BB27B61FB8803F00303FB8300233B6214E0BB6903F580531A687B6A1A607B6A94
:2040A00001337B627B6A01337B627B6A01337B627B6A01337B623B6A01333B623A6A7B690F
:2040C0009A42E6D3FB8B002B1ED000233B62BB6903F580531A4607F1100312681A603A69FB
:2040E0003B6ADBB2DB0022FA03F3DAB27B6A1A703B6A01333B627B6A01337B62FB8B013B78
:20410000FB83FB8B002BEAD17B6A18462C37BD465DF8047B704780B485B000AF78603960F8
:204120007B68FB603B681B78BB603B685B78012B2CD1BB685A01FB68134403F510631B682B
:20414000002B12DBBB68002B0FD0BB685A01FB68134403F510631B68BA685101FA680A44D0
:2041600002F5106223F080431360BB685A01FB68134403F510631B68BA685101FA680A4443
:2041800002F5106243F4001313602BE0BB685A01FB68134403F530631B68002B12DBBB686D
:2041A000002B0FD0BB685A01FB68134403F530631B68BA685101FA680A4402F5306223F0EF
:2041C00080431360BB685A01FB68134403F530631B68BA685101FA680A4402F5306243F47F
:2041E00000131360002318461437BD465DF8047B704780B485B000AF786039607B68FB6018
:204200003B681B78BB603B685B78012B28D1BB685A01FB68134403F510631B68BA68510118
:20422000FA680A4402F5106223F4001313603B68DB78032B03D03B68DB78022B38D1BB6882
:204240005A01FB68134403F510631B68BA685101FA680A4402F5106243F08053136027E04E
:20426000BB685A01FB68134403F530631B68BA685101FA680A4402F5306223F400131360AE
:204280003B68DB78032B03D03B68DB78022B0FD1BB685A01FB68134403F530631B68BA68BC
:2042A0005101FA680A4402F5306243F080531360002318461437BD465DF8047B704780B46C
:2042C00085B000AF78600B46FB707B68FB60FB6803F500631B68FA6802F5006223F4FE63B4
:2042E0001360FB6803F500631A68FB781B0103F4FE63F96801F5006113430B60002318462A
:204300001437BD465DF8047B704780B485B000AF78607B68FB60FB6803F560631B68FA6893
:2043200002F5606223F003031360FB6803F500635B68FA6802F5006223F00203536000230E
:2043400018461437BD465DF8047B704780B485B000AF78607B68FB60FB6803F560631B6857
:20436000FA6802F5606223F003031360FB6803F500635B68FA6802F5006243F0020353606F
:20438000002318461437BD465DF8047B704780B485B000AF78607B685B69FB607B689B69EA
:2043A000FA681340FB60FB6818461437BD465DF8047B704780B485B000AF78607B68FB6025
:2043C000FB6803F500639B69BB60FB6803F50063DB69BA681340BB60BB681B0C184614377B
:2043E000BD465DF8047B704780B485B000AF78607B68FB60FB6803F500639B69BB60FB68C1
:2044000003F50063DB69BA681340BB60BB689BB218461437BD465DF8047B704780B485B05D
:2044200000AF78600B46FB707B68FB60FB785A01FB68134403F530639B68BB60FB6803F56F
:2044400000635B69BA681340BB60BB6818461437BD465DF8047B704780B487B000AF786059
:204460000B46FB707B687B617B6903F500631B693B617B6903F500635B6BFB60FB7803F09C
:204480000F03FA6822FA03F3DB01DBB23A6913433B61FB785A017B69134403F510639B6821
:2044A0003A691340BB60BB6818461C37BD465DF8047B704780B483B000AF78607B685B69F4
:2044C00003F0010318460C37BD465DF8047B704780B485B000AF78607B68FB60FB6803F52D
:2044E00010631B68FA6802F5106223F4FF6323F007031360FB6803F500635B68FA6802F518
:20450000006243F480735360002318461437BD465DF8047B7047000080B487B000AFF86090
:204520000B467A60FB72FB687B61FB683C3304331B683B613B69264A93420AD97B6903F5D4
:2045400030631B6803F00043B3F1004F01D1002337E07B6903F530631A46002313617B69C6
:2045600003F530631B697A6902F5306243F4002313617B6903F530631B697A6902F5306293
:2045800043F0180313617B6903F530631B697A6902F5306243F0C0431361FB7A012B0FD1CF
:2045A0007B6903F530631A467B6853617B6903F530631B687A6902F5306243F080231360EE
:2045C000002318461C37BD465DF8047B704700BF0A30544F80B485B000AF78600023FB606F
:2045E000FB680133FB60134A934201D903231AE07B681B69002BF3DA0023FB607B681B6959
:2046000043F001027B681A61FB680133FB60094A934201D9032306E07B681B6903F00103A8
:20462000012BF1D0002318461437BD465DF8047B704700BF400D030080B400AFBFF34F8FB1
:2046400000BF064BDB6803F4E0620449044B1343CB60BFF34F8F00BF00BFFDE700ED00E0F2
:204660000400FA0580B584B000AF78600B46FB7040F21C4002F0FCFCF860FB68002B05D157
:204680007B680022C3F8BC2202233EE07B68FA68C3F8BC22FB680022C3F80C24FB681D4A21
:2046A000C3F80824FB680022C3F80024FB680022C3F80424FB68002283F81924FB68022283
:2046C00083F81824FB68002283F81024FB68002283F81124FB68002283F81224FB680022FF
:2046E00083F81324FB68022283F81424FB68002283F815247B68D3F8C0325B68984703460A
:20470000002B01D0032300E0002318461037BD4680BD00BF0080000880B584B000AF786058
:204720000B46FB707B68D3F8BC32002B01D1022327E07B68D3F8BC32FB60FB680022C3F8C1
:204740000024FB680022C3F80424FB68022283F81824FB68002283F81024FB68022283F859
:2047600014247B68D3F8C0329B6898477B68D3F8BC32184602F08AFC7B680022C3F8BC226F
:20478000002318461037BD4680BD000080B588B000AF786039607B68D3F8BC323B61002329
:2047A000FB770023BB610023FB820023FB813B69002B01D10323D5E03B681B7803F0600301
:2047C000002B3ED0202B40F0C5803B685B78062B2FD801A252F823F029480008F547000875
:2047E000FF470008094800081148000819480008214800083968786800F06CFA20E039685F
:20480000786800F0D3FA1BE0786800F0A9FB17E0786800F05BFC13E0786800F0ABFC0FE015
:20482000786800F0BFFC0BE03968786800F0EEF906E03968786801F0F9FD0323FB7700BF05
:204840008FE03B685B780B2B7BD801A252F823F0814800085149000843490008434900084F
:204860004349000843490008AB480008434900084349000843490008D548000801490008E2
:204880007B6893F89C32DBB2032B07D107F10E0302221946786801F03AFE5AE039687868F9
:2048A00001F0C4FD0323FB7753E03B685B881B0A9BB2212B07D12D4BBB613B68DB88092B91
:2048C00028BF0923FB82FB8A1A46B969786801F01EFE3EE07B6893F89C32DBB2032B08D166
:2048E0003B6903F20C4301221946786801F00FFE2FE03968786801F099FD0323FB7728E0B9
:204900003B685B88DBB2002B14D17B6893F89C32DBB2032B07D13B685B88DBB21A463B698E
:20492000C3F80C2415E03968786801F07FFD0323FB770EE03968786801F078FD0323FB77A4
:2049400007E03968786801F071FD0323FB7700E000BF06E03968786801F068FD0323FB7704
:2049600000BFFB7F18462037BD4680BD5A00002080B483B000AF78607B681B221A80034B99
:2049800018460C37BD465DF8047B70474800002080B483B000AF7860002318460C37BD46CB
:2049A0005DF8047B704780B588B000AF78607B68D3F8BC32FB617B68D3F8C032BB61FB6960
:2049C000002B01D10323CEE0FB6993F81834042B40F0BD80FB69D3F80034002B7CD1FB69F0
:2049E000D3F80434012B00F09380FB69D3F80434052B5ED1FB691B78212B24D1FB695B7850
:204A00001A46FB69C3F80824FB69D3F80824FB699B781B021A44FB69C3F80824FB69D3F824
:204A20000824FB69DB781B041A44FB69C3F80824FB69D3F80824FB691B791B061A44FB6995
:204A4000C3F8082464E0FB691B78412B2FD1FB695B781A46FB69C3F80824FB69D3F808248B
:204A6000FB699B781B021A44FB69C3F80824FB69D3F80824FB69DB781B041A44FB69C3F84B
:204A80000824FB69D3F80824FB691B791B061A44FB69C3F80824BB69DB68FA69D2F808240D
:204AA000104698470346002B32D003235BE0032359E0FB690022C3F80424FB690022C3F8E1
:204AC000002400233B7301237B8207F10C031946786801F0ABFC1BE0FB69D3F80034012B58
:204AE00016D9FB69D3F80034023B9A02FB69D3F8083413447B61BB691B69F8697969FA699F
:204B0000D2F8042498470346002B01D003232AE0FB690022C3F80424FB690022C3F8002481
:204B2000FB69032283F81824FB69002283F81124FB69002283F81224FB69002283F8132490
:204B4000FB6993F81824FB6983F814240AE0FB6993F81834072B03D1786800F075FB01E0C7
:204B6000032300E0002318462037BD4680BD80B483B000AF7860002318460C37BD465DF80D
:204B8000047B704780B483B000AF78607B680A221A80034B18460C37BD465DF8047B7047CB
:204BA0006400002080B586B000AFF8600B467A60FB72FB68D3F8C0327B61FB7A062B08D8E5
:204BC0007B691B687A680549184601F040FC034B00E0002318461837BD4680BD2401002030
:204BE00080B483B000AF786039603B68002B01D1032304E07B683A68C3F8C02200231846E1
:204C00000C37BD465DF8047B7047000080B584B000AF786039607B68D3F8BC32FB60FB68E0
:204C2000002B51D0FB6893F81834022B13D0FB6893F81834032B0ED0FB6893F81834052B2E
:204C400009D0FB6893F81834062B04D0FB6893F81834092B25D1FB68022283F81824FB6837
:204C6000002283F81024FB68002283F81124FB68002283F81224FB68002283F81324FB685E
:204C800093F81824FB6883F81424FB68002283F81524FB680022C3F80024FB680022C3F85A
:204CA00004240B4B5B7D03F01003002B06D0786800F07BFB786800F06CFB06E03B685B88AE
:204CC0001846FBF7F3FD00E000BF1037BD4680BD4800002080B584B000AF786039607B689A
:204CE000D3F8BC32FB60FB68002B5BD03B68DB88002B2DD0FB6893F81834022B04D0FB681B
:204D000093F81834052B1ED13B685B881A46FB68C3F800243B68DB881A46FB68C3F80424C9
:204D2000FB68032283F81824FB6893F81824FB6883F81424F968FB68D3F804341A467868ED
:204D400001F011FC2FE03968786801F06FFB2AE0FB6893F81834052B04D0FB6893F81834E8
:204D6000022B1AD1FB68012283F81924FB68062283F81824FB68002283F81124FB680022E1
:204D800083F81224FB68002283F81324FB6893F81824FB6883F8142405E03968786801F094
:204DA00045FB00E000BF1037BD4680BD80B586B000AF786039607B68D3F8BC327B617B68A7
:204DC000D3F8C0323B617B69002B00F0C4803B68DB88002B00F0A8807B6993F81834022B06
:204DE00005D07B6993F81834092B40F090803B685B881A467B69C3F800243B68DB881A46A0
:204E00007B69C3F804247B69D3F80034002B2CD17B69D3F80434032B01D9022200E00922A2
:204E20007B6983F818247B69002283F811247B69002283F812247B69002283F813247B69CE
:204E400093F818247B6983F814247B6900221A707B6921225A707B6941229A707B69032219
:204E60001946786801F053FB76E07B69D3F80034012B31D97B69092283F818247B69002279
:204E800083F811247B69002283F812247B69002283F813247B6993F818247B6983F81424B1
:204EA0007B69D3F80034023B9A027B69D3F808341344FB603B695B69F86879697A69D2F842
:204EC00004249847B8607B69D3F804341A46B968786801F01CFB3FE07B690F2283F8182478
:204EE0007B69002283F811247B69002283F812247B69002283F813247B6993F818247B69FE
:204F000083F814243968786801F090FA24E07B690022C3F804247B690022C3F8002439686F
:204F2000786801F083FA17E07B69022283F818247B69002283F811247B69002283F8122400
:204F40007B69002283F813247B6993F818247B6983F8142400E000BF1837BD4680BD000029
:204F600080B584B000AF78607B68D3F8BC32FB607B68D3F8C032BB60FB68002B00F0A080F1
:204F8000FB6893F81834032B02D0062B51D08EE0FB68D3F80434002B34D0FB68042283F87E
:204FA0001824FB68002283F81124FB68002283F81224FB68002283F81324FB6893F81824E9
:204FC000FB6883F81424FB68D3F80034002B0ED1FB681B78412B0AD1BB689B69FA68D2F8BF
:204FE0000804FA6802F58262002198475FE0BB689B69FA68D2F80804FA6802F5826201216B
:20500000984754E0FB68052283F81824FB68002283F81124FB68002283F81224FB6800224C
:2050200083F81324FB6893F81824FB6883F814243DE0FB6893F81934012B16D1FB68072287
:2050400083F81824FB68012283F81124FB68002283F81224FB68002283F81324FB6893F808
:205060001824FB6883F8142420E0FB6893F81934002B1BD1144B1B7D03F00403002B15D08B
:20508000FB68022283F81824FB68002283F81124FB68002283F81224FB68002283F8132430
:2050A000FB6893F81824FB6883F8142400BFFB6803F5826306221946786801F028FA00E057
:2050C00000BF1037BD4680BD4800002080B485B000AF78607B68D3F8BC32FB60FB68002BAD
:2050E00042D0FB6893F818340A2B1ED1FB68022283F81824FB68002283F81024FB68002249
:2051000083F81124FB68002283F81224FB68002283F81324FB6893F81824FB6883F8142432
:20512000FB68002283F815241FE0FB680A2283F81824FB680E2283F81024FB68002283F8AF
:205140001124FB68002283F81224FB68002283F81324FB6893F81824FB6883F81424FB680A
:20516000002283F8152400E000BF1437BD465DF8047B704780B584B000AF78607B68D3F843
:20518000BC32FB60FB68002B08D0FB6803F5836301221946786801F0BAF900E000BF103733
:2051A000BD4680BD80B485B000AF78607B68D3F8BC32FB60FB68002B3FD0FB6893F81834F1
:2051C000022B13D0FB6893F81834032B0ED0FB6893F81834052B09D0FB6893F81834062BCB
:2051E00004D0FB6893F81834092B27D1FB68022283F81824FB68002283F81024FB6800227E
:2052000083F81124FB68002283F81224FB68002283F81324FB6893F81824FB6883F8142431
:20522000FB68002283F81524FB680022C3F80024FB680022C3F8042400E000BF1437BD467C
:205240005DF8047B7047000080B584B000AF78607B68D3F8BC32FB60FB68002B3BD0FB68E0
:20526000002283F819241E4B1B7D03F00403002B16D0FB68062283F81824FB68002283F806
:205280001124FB68002283F81224FB68002283F81324FB6893F81824FB6883F814241BE031
:2052A000FB68082283F81824FB68002283F81124FB68002283F81224FB68002283F8132408
:2052C000FB6893F81824FB6883F81424786800F06CF8FFF7B1F900BF1037BD4680BD00BFB5
:2052E0004800002080B586B000AFF860B9601346FB71FB68002B01D103231FE0FB680022EC
:20530000C3F8B822FB680022C3F8C022FB680022C3F8CC22BB68002B03D0FB68BA68C3F847
:20532000B422FB68012283F89C22FB68FA791A70F86801F029FD0346FB75FB7D1846183723
:20534000BD4680BD80B584B000AF786039600023FB813B68002B01D1032316E07B683A68A4
:20536000C3F8B8227B68D3F8B832DB6A002B0BD07B68D3F8B832DB6A07F10E02104698479B
:2053800002467B68C3F8CC22002318461037BD4680BD80B582B000AF7860786801F040FD35
:2053A000034618460837BD4680BD80B582B000AF7860786801F04FFD7B68D3F8B832002BF9
:2053C00009D07B68D3F8B8325B687A685268D2B2114678689847002318460837BD4680BD63
:2053E00080B483B000AF7860002318460C37BD465DF8047B704780B584B000AF78600B462C
:20540000FB700323FB737B68D3F8B832002B09D07B68D3F8B8321B68FA781146786898474E
:205420000346FB73FB7B18461037BD4680BD80B582B000AF78600B46FB707B68D3F8B83218
:20544000002B07D07B68D3F8B8325B68FA78114678689847002318460837BD4680BD80B532
:2054600084B000AF786039607B6803F2AA233968184600F0A1FF7B680122C3F894227B684A
:20548000B3F8B0321A467B68C3F898227B6893F8AA3203F01F03022B1AD0022B22D8002BFF
:2054A00002D0012B0AD01DE07B6803F2AA231946786800F061FA0346FB7320E07B6803F259
:2054C000AA231946786800F0C5FA0346FB7316E07B6803F2AA231946786800F004FB034648
:2054E000FB730CE07B6893F8AA3223F07F03DBB21946786801F0F0FC0346FB7300BFFB7BDE
:2055000018461037BD4680BD80B586B000AFF8600B467A60FB72FB7A002B38D1FB6803F598
:20552000AA733B61FB68D3F89432032B4AD13B699A683B69DB689A4213D93B699A683B69D6
:20554000DB68D21A3B699A603B69DA683B699B68934228BF13461A467968F86801F020F832
:2055600030E0FB6893F89C32DBB2032B0BD1FB68D3F8B8321B69002B05D0FB68D3F8B83214
:205580001B69F8689847F86801F01BF81AE0FB6893F89C32DBB2032B14D1FB68D3F8B83276
:2055A0009B69002B0ED0FB68D3F8B8329B69FA7A1146F86898470346FB75FB7D002B01D08B
:2055C000FB7D00E0002318461837BD4680BD80B586B000AFF8600B467A60FB72FB7A002BB9
:2055E0006BD1FB6814333B61FB68D3F89432022B56D13B699A683B69DB689A4214D93B69E7
:205600009A683B69DB68D21A3B699A603B699B681A467968F86800F095FF002300220021E5
:20562000F86801F003FD3BE03B69DA683B699B689A421CD13B695A683B69DB689A4216D396
:205640003B695A68FB68D3F898329A420FD200220021F86800F076FFFB680022C3F898222D
:20566000002300220021F86801F0E0FC18E0FB6893F89C32DBB2032B0BD1FB68D3F8B83234
:20568000DB68002B05D0FB68D3F8B832DB68F86898478021F86801F01FFCF86800F0A4FF2D
:2056A000FB6893F8A032012B22D1F868FFF798FEFB68002283F8A0221AE0FB6893F89C32A7
:2056C000DBB2032B14D1FB68D3F8B8325B69002B0ED0FB68D3F8B8325B69FA7A1146F8683E
:2056E00098470346FB75FB7D002B01D0FB7D00E0002318461837BD4680BD80B582B000AF20
:2057000078607B68012283F89C227B680022C3F894227B6800225A607B680022C3F8A422B7
:205720007B68D3F8B832002B01D103232FE07B68D3F8BC32002B0FD07B68D3F8B8325B689E
:20574000002B09D07B68D3F8B8325B687A685268D2B211467868984740230022002178682E
:2057600001F094FB7B680122A3F864217B684022C3F86021402300228021786801F086FB8A
:205780007B6801229A847B6840221A62002318460837BD4680BD80B483B000AF78600B46E5
:2057A000FB707B68FA781A74002318460C37BD465DF8047B704780B483B000AF78607B6878
:2057C00093F89C32DAB27B6883F89D227B68042283F89C22002318460C37BD465DF8047BEA
:2057E000704780B483B000AF78607B6893F89C32DBB2042B06D17B6893F89D32DAB27B6889
:2058000083F89C22002318460C37BD465DF8047B704780B582B000AF78607B68D3F8B83277
:20582000002B01D1032312E07B6893F89C32DBB2032B0BD17B68D3F8B832DB69002B05D0A4
:205840007B68D3F8B832DB6978689847002318460837BD4680BD80B582B000AF78600B466E
:20586000FB707B68D3F8B832002B01D1032314E07B6893F89C32DBB2032B0DD17B68D3F88B
:20588000B8321B6A002B07D07B68D3F8B8321B6AFA78114678689847002318460837BD462F
:2058A00080BD80B582B000AF78600B46FB707B68D3F8B832002B01D1032314E07B6893F8E4
:2058C0009C32DBB2032B0DD17B68D3F8B8325B6A002B07D07B68D3F8B8325B6AFA781146DC
:2058E00078689847002318460837BD4680BD80B483B000AF7860002318460C37BD465DF8DF
:20590000047B704780B582B000AF78607B68012283F89C227B68D3F8B832002B09D07B68A5
:20592000D3F8B8325B687A685268D2B2114678689847002318460837BD4680BD80B487B04E
:2059400000AF78607B687B617B691B787B827B6901337B617B691B783B823B8A1B021AB2B7
:20596000B7F9123013431BB2FB81FB8918461C37BD465DF8047B704780B584B000AF7860E3
:2059800039600023FB733B681B7803F06003402B05D0402B53D8002B0BD0202B4FD17B6827
:2059A000D3F8B8329B683968786898470346FB734AE03B685B78092B3BD801A252F823F031
:2059C000155A0008295A0008335A00081F5A0008335A0008F3590008E9590008335A0008E7
:2059E0000B5A0008FD5900083968786800F0DEF924E03968786800F055FB1FE0396878684F
:205A000000F094FB0346FB7318E03968786800F033FC13E03968786800F064FC0EE0396865
:205A2000786800F093FC09E03968786800F0A2FC04E03968786800F0F9FC00BF04E0396881
:205A4000786800F0F3FC00BFFB7B18461037BD4680BD00BF80B584B000AF78603960002302
:205A6000FB733B681B7803F06003402B05D0402B2FD8002B01D0202B2BD17B6893F89C32FB
:205A8000DBB2013B022B1DD83B689B88DBB2012B13D87B68D3F8B8329B68396878689847B6
:205AA0000346FB733B68DB88002B10D1FB7B002B0DD1786800F085FD09E03968786800F0F2
:205AC000B5FC04E03968786800F0B0FC00E000BF04E03968786800F0A9FC00BFFB7B1846E8
:205AE0001037BD4680BD80B584B000AF786039600023FB733B689B88BB733B681B7803F0E8
:205B00006003402B07D0402B00F24581002B0CD0202B40F040817B68D3F8B8329B6839683E
:205B2000786898470346FB733AE13B685B78032B07D0032B00F32981002B7FD0012B3CD0DC
:205B400023E17B6893F89C32DBB2022B02D0032B16D02CE0BB7B002B0DD0BB7B802B0AD060
:205B6000BB7B1946786801F0B7F98021786801F0B3F900BF20E03968786800F057FC1BE073
:205B80003B685B88002B0ED1BB7B002B0BD0BB7B802B08D03B68DB88002B04D1BB7B1946E5
:205BA000786801F099F9786800F00BFD04E03968786800F03BFC00BFECE07B6893F89C3257
:205BC000DBB2022B02D0032B16D030E0BB7B002B0DD0BB7B802B0AD0BB7B1946786801F0B6
:205BE0007BF98021786801F077F900BF25E03968786800F01BFC20E03B685B88002B1BD166
:205C0000BB7B03F07F03002B04D0BB7B1946786801F081F9786800F0D4FC7B68D3F8B832C2
:205C20009B683968786898470346FB7304E03968786800F0FBFB00E000BFABE07B6893F867
:205C40009C32DBB2022B02D0032B32D097E0BB7B002B07D0BB7B802B04D03968786800F0E5
:205C6000E5FB91E097F90E30002B0BDABB7B03F07F0213469B0013449B0010337A681344E9
:205C800004330BE0BB7B03F07F0213469B0013449B0003F5A8737A6813440433BB60BB6891
:205CA00000221A60BB6802221946786800F02FFC6AE097F90E30002B11DABB7B03F00F023F
:205CC000796813469B0013449B000B4424331B88002B17D13968786800F0A8FB54E0BB7B23
:205CE00003F00F02796813469B0013449B000B4403F5B2731B88002B04D13968786800F059
:205D000095FB41E097F90E30002B0BDABB7B03F07F0213469B0013449B0010337A681344E8
:205D200004330BE0BB7B03F07F0213469B0013449B0003F5A8737A6813440433BB60BB7BDD
:205D4000002B02D0BB7B802B03D1BB6800221A600EE0BB7B1946786801F0FCF80346002B16
:205D600003D0BB6801221A6002E0BB6800221A60BB6802221946786800F0C9FB04E0396830
:205D8000786800F053FB00BF04E03968786800F04DFB00BF04E03968786800F047FB00BF74
:205DA000FB7B18461037BD4680BD000080B584B000AF7860396000233B810023FB6000237F
:205DC000FB723B685B881B0A9BB2013B062B00F23B8101A252F823F0F55D00080D5E000876
:205DE0004D5E00084960000849600008E95F0008156000087B68D3F8B4321B687A68127C3A
:205E000007F1080110469847F86025E17B681B7C002B0DD17B68D3F8B8329B6A07F10802CC
:205E200010469847F860FB68013302221A7013E17B68D3F8B832DB6A07F108021046984788
:205E4000F860FB68013302221A7005E13B685B88DBB2052B00F2AC8001A252F823F000BF9F
:205E6000795E0008AD5E0008E15E0008155F0008495F00087D5F00087B68D3F8B4325B6882
:205E8000002B0BD07B68D3F8B4325B687A68127C07F1080110469847F860A4E039687868A2
:205EA00000F0C4FAFB7A0133FB729CE07B68D3F8B4329B68002B0BD07B68D3F8B4329B686E
:205EC0007A68127C07F1080110469847F8608AE03968786800F0AAFAFB7A0133FB7282E0CD
:205EE0007B68D3F8B432DB68002B0BD07B68D3F8B432DB687A68127C07F108011046984748
:205F0000F86070E03968786800F090FAFB7A0133FB7268E07B68D3F8B4321B69002B0BD062
:205F20007B68D3F8B4321B697A68127C07F1080110469847F86056E03968786800F076FA34
:205F4000FB7A0133FB724EE07B68D3F8B4325B69002B0BD07B68D3F8B4325B697A68127CD7
:205F600007F1080110469847F8603CE03968786800F05CFAFB7A0133FB7234E07B68D3F8D8
:205F8000B4329B69002B0BD07B68D3F8B4329B697A68127C07F1080110469847F86022E079
:205FA0003968786800F042FAFB7A0133FB721AE07B68D3F8B8329B6B002B0CD07B68D3F8D1
:205FC000B8329B6B3A685288D1B207F1080278689847F86006E03968786800F027FAFB7ACC
:205FE0000133FB7200BF37E07B681B7C002B09D17B68D3F8B8325B6B07F108021046984716
:020000040800F2
:20600000F86029E03968786800F010FAFB7A0133FB7221E07B681B7C002B0DD17B68D3F85C
:20602000B8321B6B07F1080210469847F860FB68013307221A700FE03968786800F0F6F9C8
:20604000FB7A0133FB7207E03968786800F0EEF9FB7A0133FB7200BFFB7A002B1ED13B68E4
:20606000DB88002B16D03B89002B0ED03B68DA883B89934228BF13469BB23B813B891A46D4
:20608000F968786800F043FA09E03968786800F0CDF904E0786800F094FA00E000BF10374A
:2060A000BD4680BD80B584B000AF786039603B689B88002B31D13B68DB88002B2DD13B6852
:2060C0005B887F2B29D83B685B88DBB203F07F03FB737B6893F89C32DBB2032B04D13968CF
:2060E000786800F0A3F91DE07B68FA7B83F89E22FB7B1946786800F059FF786800F061FA7C
:20610000FB7B002B04D07B68022283F89C2209E07B68012283F89C2204E03968786800F04D
:2061200085F900BF00BF1037BD4680BD80B584B000AF786039600023FB733B685B88DAB2B0
:206140004C4B1A704B4B1B78012B05D93968786800F06CF9032388E07B6893F89C32DBB2BE
:20616000022B02D0032B25D071E0424B1B78002B1CD0404B1B781A467B685A603D4B1B783F
:2061800019467868FFF737F90346FB73FB7B002B04D03968786800F049F965E0786800F0A6
:2061A00010FA7B68032283F89C225DE0786800F008FA59E02F4B1B78002B12D17B6802222A
:2061C00083F89C222B4B1B781A467B685A60294B1B7819467868FFF72AF9786800F0F1F967
:2061E00042E0244B1B781A467B685B689A422AD07B685B68DBB219467868FFF718F91D4BBE
:206200001B781A467B685A601A4B1B7819467868FFF7F1F80346FB73FB7B002B0FD0396800
:20622000786800F003F97B685B68DBB219467868FFF7FDF87B68022283F89C2214E0786821
:2062400000F0BFF910E0786800F0BBF90CE03968786800F0EBF8074B1B7819467868FFF7C8
:20626000E6F80323FB7300BFFB7B18461037BD4680BD00BF2302002080B582B000AF7860A0
:2062800039603B68DB88012B04D03968786800F0CDF823E07B6893F89C32DBB2022B02DC52
:2062A000002B03DC15E0032B0BD012E07B6800229A607B68083301221946786800F027F955
:2062C0000CE07B68043301221946786800F01FF904E03968786800F0A9F800BF00BF08379B
:2062E000BD4680BD80B582B000AF786039607B6893F89C32DBB2013B022B1ED83B68DB88A9
:20630000022B04D03968786800F090F81AE07B680122DA607B68D3F8A432002B05D07B68E2
:20632000DB6843F002027B68DA607B680C3302221946786800F0EBF804E03968786800F019
:2063400075F800BF00BF0837BD4680BD80B582B000AF786039603B685B88012B06D17B68E0
:206360000122C3F8A422786800F02BF900BF0837BD4680BD80B582B000AF786039607B68DD
:2063800093F89C32DBB2013B022B0BD83B685B88012B0CD17B680022C3F8A422786800F0E6
:2063A00010F904E03968786800F040F800E000BF00BF0837BD4680BD80B584B000AF78607A
:2063C00039603B68FB60FB681A787B681A70FB680133FB60FB681A787B685A70FB68013399
:2063E000FB60F868FFF7AAFA03461A467B685A80FB680133FB60FB680133FB60F868FFF7A8
:206400009DFA03461A467B689A80FB680133FB60FB680133FB60F868FFF790FA03461A46D2
:206420007B68DA8000BF1037BD4680BD80B582B000AF786039608021786800F04DFD002176
:20644000786800F049FD00BF0837BD4680BD80B586B000AFF860B9607A600023FB75FB688D
:20646000002B36D0FB683B61386900F036F8034601339BB25B009AB27B681A80FB7DBA68A5
:2064800013447A6812781A70FB7D0133FB75FB7DBA68134403221A70FB7D0133FB7513E0E4
:2064A000FB7DBA6813443A6912781A703B6901333B61FB7D0133FB75FB7DBA681344002291
:2064C0001A70FB7D0133FB753B691B78002BE7D100E000BF1837BD4680BD80B485B000AFB6
:2064E00078600023FB737B68BB6005E0FB7B0133FB73BB680133BB60BB681B78002BF5D11F
:20650000FB7B18461437BD465DF8047B704780B584B000AFF860B9607A60FB680222C3F829
:206520009422FB687A689A61FB687A68DA617B68BA680021F86800F058FD00231846103752
:20654000BD4680BD80B584B000AFF860B9607A607B68BA680021F86800F047FD002318465D
:206560001037BD4680BD80B584B000AFF860B9607A60FB680322C3F89422FB687A68C3F838
:206580005821FB687A68C3F85C217B68BA680021F86800F04BFD002318461037BD4680BD3F
:2065A00080B584B000AFF860B9607A607B68BA680021F86800F03AFD002318461037BD4600
:2065C00080BD80B582B000AF78607B680422C3F89422002300220021786800F006FD0023BA
:2065E00018460837BD4680BD80B582B000AF78607B680522C3F8942200230022002178680F
:2066000000F014FD002318460837BD4680BD000080B500AF002212491248FEF763FE03461F
:20662000002B01D0FAF732F80F490E48FEF78AFE0346002B01D0FAF729F80C490948FEF726
:20664000CFFA0346002B01D0FAF720F80548FEF7A0FE0346002B01D0FAF718F800BF80BD01
:2066600070000020240200200C000020C000002080B483B000AF03463960FB713B681222FD
:206680001A80034B18460C37BD465DF8047B70478C00002080B483B000AF03463960FB71D3
:2066A0003B6804221A80034B18460C37BD465DF8047B7047A000002080B582B000AF0346DB
:2066C0003960FB71FB79002B05D13A6807490848FFF7BDFE04E03A6804490548FFF7B7FE82
:2066E000024B18460837BD4680BD00BFF40400206871000880B582B000AF03463960FB7154
:206700003A6804490448FFF7A2FE024B18460837BD4680BDF40400208871000880B582B0FE
:2067200000AF03463960FB713B681A221A8000F043F8024B18460837BD4680BDA4000020CA
:2067400080B582B000AF03463960FB71FB79002B05D13A6807490848FFF779FE04E03A682B
:2067600004490548FFF773FE024B18460837BD4680BD00BFF40400209C71000880B582B09B
:2067800000AF03463960FB71FB79002B05D13A6807490848FFF75BFE04E03A6804490548D6
:2067A000FFF755FE024B18460837BD4680BD00BFF4040020A871000880B584B000AF0F4BFC
:2067C0001B68FB600E4B1B68BB600E4B1B687B60FA687B681344FB60FB68002B09D00822A5
:2067E0000949F86800F014F804220849B86800F00FF800BF1037BD4680BD00BF107AFF1FB0
:20680000147AFF1F187AFF1FA6000020B600002080B487B000AFF860B9601346FB7100230D
:20682000FB750023FB7527E0FB681B0F092B0BD8FB681B0FDAB2FB7D5B001946BB680B44ED
:206840003032D2B21A700AE0FB681B0FDAB2FB7D5B001946BB680B443732D2B21A70FB6847
:206860001B01FB60FB7D5B000133BA68134400221A70FB7D0133FB75FA7DFB799A42D3D3EC
:2068800000BF00BF1C37BD465DF8047B704780B582B000AF0123FB7103E0FAF791F903464C
:2068A000FB71FB79002BF8D1002318460837BD4680BD80B582B000AF0123FB7103E0FAF78A
:2068C000A1F90346FB71FB79002BF8D1002318460837BD4680BD80B58AB000AF78600023E8
:2068E0007B620023FB61786800F0A8F878620023BB600123FB607B6A3B6101237B6102238F
:20690000BB6107F11C0207F1080311461846FAF7C9FA034687F8233097F82330002B01D0E0
